:40000000021C3B008F828E83E0540100000070F82278FFE4F6D8FD021C9CBB010689828A83E0225002E722BBFE02E32289828A83E49322BB010689828A83F0225002F722A7
:40004000BBFE01F322C5F0F8A3E028F0C5F0F8E582158270021583E038F022BB010A89828A83E0F5F0A3E022500687F009E71922BBFE07E3F5F009E3192289828A83E4930C
:40008000F5F074019322BB010A89828A83F0E5F0A3F0225006F709A7F01922BBFE06F3E5F009F31922EF2BFFEE3AFEED39FDEC38FC22C3EF9BFFEE9AFEED99FDEC98FC2258
:4000C000E88FF0A4CC8BF0A42CFCE98EF0A42CFC8AF0EDA42CFCEA8EF0A4CDA8F08BF0A42DCC3825F0FDE98FF0A42CCD35F0FCEB8EF0A4FEA9F0EB8FF0A4CFC5F02ECD3919
:40010000FEE43CFCEAA42DCE35F0FDE43CFC2275F008758200EF2FFFEE33FECD33CDCC33CCC58233C5829BED9AEC99E58298400CF582EE9BFEED9AFDEC99FC0FD5F0D6E440
:40014000CEFBE4CDFAE4CCF9A88222B800C1B90059BA002DEC8BF084CFCECDFCE5F0CBF97818EF2FFFEE33FEED33FDEC33FCEB33FB10D703994004EB99FB0FD8E5E4F9FAB4
:40018000227818EF2FFFEE33FEED33FDEC33FCC933C910D7059BE99A4007EC9BFCE99AF90FD8E0E4C9FAE4CCFB2275F010EF2FFFEE33FEED33FDCC33CCC833C810D7079BE4
:4001C000EC9AE899400AED9BFDEC9AFCE899F80FD5F0DAE4CDFBE4CCFAE4C8F922EF4BFFEE4AFEED49FDEC48FC22EB9FF5F0EA9E42F0E99D42F0E89C45F022E8600FECC3AD
:4002000013FCED13FDEE13FEEF13FFD8F122E8600FEFC333FFEE33FEED33FDEC33FCD8F122BB010789828A830202415005E9F802047BBBFE05E9F802048789828A83020429
:4002400093E0FCA3E0FDA3E0FEA3E0FF22E0F8A3E0F9A3E0FAA3E0FB227401FF3395E0FEFDFC080808E6CF2FF618E6CE3EF618E6CD3DF618E6CC3CF622ECF0A3EDF0A3EEEB
:40028000F0A3EFF022A42582F582E5F03583F58322FAE6FB0808E6F925F0F618E6CA3AF622E0FBA3E0FAA3E0F922F8E0FBA3A3E0F925F0F0E582158270021583E0FA38F0DB
:4002C00022EBF0A3EAF0A3E9F022E493FB740193FA740293F922BB010789828A830202A15005E9F80204A3BBFE05E9F80204AC89828A830202CAD083D082F8E493701274AE
:400300000193700DA3A393F8740193F5828883E4737402936860EFA3A3A380DFE5092582F582E5083583F583B508048582092210AF06858209F50822858209F508D2AF2232
:40034000EC8EF0A4CCC5F0CCCDF8EFA4CEC5F02DFDE43CFCE8A42EC8C5F03DFDE43CFCEFA4FFE5F028FEE43DFDE43CFC22EF4E6012EF60010EEDBB010B89828A83F0A3DF40
:40038000FCDEFA2289F05007F709DFFCA9F022BBFEFCF309DFFCA9F022E709F608DFFA8046E709F208DFFA803E88828C83E709F0A3DFFA8032E309F608DFFA806EE309F2D6
:4003C00008DFFA806688828C83E309F0A3DFFA805A89828A83E0A3F608DFFA804E89828A83E0A3F208DFFA804280D280FA80C680D4805580F28029801080A680EA809A806B
:40040000A880DA80E280CA802988848C8589828A83E493A30586F0A30586DFF5DEF3800B89828A83E493A3F608DFF9ECFAA9F0EDFB2288848C8589828A83E0A30586F0A3D6
:400440000586DFF6DEF480E389828A83E493A3F208DFF980D688F0EF60010E4E60CD88F0ED2402B4040050C3F582EB2402B4040050B923234582239003E973E6FC08E6FDB1
:4004800008E6FE08E6FF22E2FC08E2FD08E2FE08E2FF22E493FC740193FD740293FE740393FF22E6FB08E6FA08E6F922E2FB08E2FA08E2F922900000EFF0E4F53DF53EF59A
:4004C0003FF540F541EF7003D38001C39200900000E0700374FFF012329ED2AF9044F474FDF0E4F539F547754800754935900000E0F54A7B017A0079017D2C7C01121D28DB
:400500008F3CE53C64107003020920E53C64057003020920C3E5369407E53594004008900001E064016005753904806D7A0079037B0112335A8E3D8F3E74052FF582740010
:400540003EFAA9827B0112335A8E3A8F3BE53E2407FFE4353DFED3EF9536EE9535400575390380357407253EF5827400353DF583E064176005753904801F7B017A007901A6
:40058000E53E2404FDE4353DFC12245DEF653B7003EE653A6003753908E4F537F538E5396003020913900005E0F534753904900002E01202F605D43105FF32065434073EAB
:4005C00035074637078C3806773907C73A08FC3B00000910200003020913E53E453D6003020913F5377538011215AAEF70047F0180027F00900005EFF0E4F53902091320A7
:400600000003020913E53E6401453D6003020913E534C394015031E53470149004C51202A1120221E4FB7A01F9F812014B8005E4FFFEFDFC8E218F22900005EFF0E521A3B7
:40064000F0A374FFF0E4A3F0753700753804E4F53902091330000BE53E6403453D6003020913753F017540207E017F207D007B017A01792D12036D200003020913C3E53E4D
:400680009403E53D94005003020913E53E24FDFFE53D34FFFE742D2540F97401353FA801FC7D017B017A007908120455E53E24FDFFE53D34FFFEEF2540F540EE353FF53F44
:4006C000753D01753E20E540653E7004E53F653D70617A0079067B0112335A8E3F8F40E541702A7E017F20FD7B017A02795912036D7B017A02795990037F7401F0A3742052
:40070000F07DFF7C00E4FF121FDF7541017B017A01792D90037FE53DF0A3E53EF0AD40AC3FAF34121FDFEF60047F0A80027F008F398003753903E4F53FF540020913E4F5C8
:400740003FF540020920E540253EFFE53F353DFED3EF942CEE9401502DE4F539AE3DAF3E742D2540F97401353FA801FC7D017B017A007905120455E53E2540F540E53D3555
:400780003FF53F020913753903020913E53E453D600302091378237C00FD7BFF7A36796CFE7F08120455D200753700753808AE37AF3878057C007D017B007A007923120483
:4007C00055E4F539020913200003020913E53E6403453D60030209137A0079067B0112335A8E2B8F2C7C017D00120340C004C005C006C007AF34E4FCFDFEFBFA7901F81282
:4008000000C0D003D002D001D0001200A58F308E2F8D2E8C2DE4F549754801F547F546122F728F31AF34E4FCFDFEFBFA7901F81200C0E47B08FAF9F812014BE42FFFE43E66
:40084000FEED3408FDE43CFCC004A905AA06AB07AE2BAF2C7C007D20120340D0001200A58F308E2F8D2E8C2DE4F532F533C3E5339420E5329400502AE4E5332530FFE5327D
:40088000352FFEE4352EFDE4352DA907AA06AB051233ACEF2531F5310533E5337002053280CBE5347044AE2BAF2CFCFD7BFFFAF9F8C31201EA7033E52C30E0047F00800234
:4008C0007F01900259EFF0FEC374D09400FF74FF9E8F82F583E493FFC3E5319FF53190FFD1E493FFC3E5319FF531E531F404900005F0E4F539F53775380180171215AAEF1E
:4009000070069046FA7480F09046F67401F080107539057C007D01AB38AA37AF391223B83000030204E222E490038CF0FBFAF9A31202C1E4900551F0A3F0906000E05480FF
:4009400064806003020B5AA3E07003020A9D24F87003020B1124FE7003020B2F24046003020CC9906003E0B4012D1233299003901202C1E92401F9E43AFA1202D69005533E
:400980001202C1900551E4F0A37412F0122DEC90038CEFF0020CC9906003E06402705C906002E0FF1230FF9003901202C19003901202A1E92401F9E43AFA1202D6900553B7
:4009C0001202C19005531202A1E92403F9E43AFA12001AFE9005531202A1E92402F9E43AFA12001AFDEEEDFF900551EEF0A3EFF0122DEC90038CEFF0020CC9906003E064FD
:400A0000036003020A92FF7BFF7A34794B90038D1202C1906002E0D39F401B90038D1202A112001A601012001AFD90038EE48DF01200450F80DD906002E0602B903420E42F
:400A400093FF906002E0B5071E7BFF7A3479D290038D1202C1900625E0600C9006281202A190038D1202C190038D1202A112001A7003020CC912001AFF900551E4F0A3EF9F
:400A8000F09005531202C1122DEC90038CEFF0020CC9122CD390038CEFF0020CC9906000E05403603E24FE6003020CC9900551E4F0A37402F0906004E0547F75F00B900513
:400AC0006C120285E0900626F0E4A3F07B017A0679269005531202C1122DEC90038CEFF0020CC9900551E4F0A37402F0900564E0900626F0E4A3F07B017A06792690055354
:400B00001202C1122DEC90038CEFF0020CC9020CC9900551E4F0A304F0FB7A0579659005531202C1122DEC90038CEFF0020CC9900551E4F0A304F0906004E07E002450F993
:400B4000EE3405FA7B019005531202C1122DEC90038CEFF0020CC9020CC9906001E0147003020BED24FE7003020C6424FA601E24FE603724066003020CC9906002E09005CB
:400B80005FF012327090038CEFF0020CC9906002E0900565F090055D7401F0FF120CCF12327090038CEFF0020CC91227F5EF7003020CC9906004E0900559F090055D740155
:400BC000F0121006900559E02450F582E43405F583E0FF900559E0245EF582E43405F583EFF012327090038CEFF0020CC9906000E05403601D146037146003020CC990605F
:400C000002E06003020CC9121E1590038CEFF0020CC9906002E064016003020CC9900564E054FDF012327090038CEFF0020CC9906004E0C394014003020CC9E02460F58249
:400C4000E43405F583C083C082E0FF906002E0F4FEEF5ED082D083F012327090038CEFF080678065906000E05403601614602C147057906002E0705112258390038CEFF0F4
:400C80008047906002E06401703F900564E04402F012327090038CEFF0802E906004E0C394015025E02460F582E43405F583C083C082E0FF906002E0F4FEEF5ED082D083ED
:400CC000F012327090038CEFF090038CE0FF22E4900396F0A3F0900393F0900393E0FEC39409505E75F00BEE90056A120285E4F075F00BEE90056C120285E4F075F00BEE86
:400D000090056B120285E4F075F00BEE90056D120285E4F075F00BEE90056F120285E4F075F00BEE900572120285E4F0A3F075F00BEE900574120285E4F0900393E004F077
:400D40008098EF602FE4900395F0900395E0FFC39401502074502FF582E43405F583E4F0745E2FF582E43405F583E4F0900395E004F080D6900565E0D39400500302100561
:400D8000E014FF1230FF9003981202C19003981202A1E92401F9E43AFA1202D6E92407F9E43AFA12001A54406009900564E04401F08007900564E054FEF0900399E475F0A3
:400DC000041200459003981202A112001A900393F09003957401F0900395E0C394094003020F559003981202A1E92401F9E43AFA1202D690039B1202C1E4900394F090035E
:400E000093E0FFA3E0C39F4003020F4C90039B1202A1E92402F9E43AFA12001A547FFF900395E06F7001E46003020F3990039B1202A1E92404F9E43AFA12005BFFAEF090A2
:400E40000395E075F00B900572120285E0FCA3E0C39FEC9E5012900395E075F00B900572120285EEF0A3EFF090039B1202A1E92401F9E43AFA12001AFF90039B1202A112A3
:400E8000001A2450F582E43405F583E06F6003020F39E92403F9E43AFA12001A5403640170047F0180027F0090039B1202A1E92402F9E43AFA12001A30E728900395E0FE2A
:400EC00075F00B90056B1202857401F0EF60047D0780027D0D75F00BEE90056F120285EDF08025900395E0FE75F00B90056B120285E4F0EF60047F0580027F0975F00BEE02
:400F000090056F120285EFF012001AFF900395E0FE75F00B90056E120285EFF090039B1202A1E92403F9E43AFA12001AFF75F00BEE90056A120285EFF0900394E004F0908A
:400F4000039CE475F007120045020DFE900395E004F0020DD79003981202A1E92401F9E43AFA1202D690039B1202C1E4900395F0900393E0FF900395E0C39F503390039B34
:400F80001202A112001AFFE92402F9E43AFA12001A547F75F00B900574120285EFF0900395E004F090039CE475F00712004580C012299990055BEEF0A3EFF0900393740170
:400FC000F0900393E0FFC394095037900396E0FCA3E0FD75F00BEF900570120285ECF0A3EDF075F00BEF900572120285E0FEA3E0FF900396EE8FF0120045900393E004F0F1
:4010000080BF121A3A22900565E0D39400500302125CE014FF1230FF740429F9E43AFA12001A900393F0E92401F9E43AFA1202D69003961202C1E4900394F0900393E0FFB6
:40104000A3E0C39F400302125C9003961202A112001AFF245EF582E43405F583E0FE74502FF582E43405F583E06E7003021249E92401F9E43AFA12001AFF9003961202A11E
:4010800012001AFE2450F582E43405F583E06F6003021249906004E06E6003021249E92402F9E43AFA12001A547FFD24FFFFE434FFFEEFC4F8540FC868FFEEC454F048ACFB
:4010C000079003961202A1E92403F9E43AFA12001A5403640170047F0180027F00900395EFF0A31202A1E92402F9E43AFA12001A30E72775F00BED90056B1202857401F0C9
:40110000900395E060047F0780027F0D75F00BED90056F120285EFF0802475F00BED90056B120285E4F0900395E060047F0580027F0975F00BED90056F120285EFF0740E13
:401140002CF582E43460F5837401F09003961202A1E92404F9E43AFA12005BFFAEF075F00BED900572120285EEF0A3EFF09003961202A1E92402F9E43AFA12001AFF75F082
:401180000BED90056E120285EFF09003961202A1E92403F9E43AFA12001AFF75F00BED90056A120285EFF075F00BED90056D120285E4F075F00BED900572120285E0FF74A2
:4011C0000C2CF582E43460F583EFF075F00BED900572120285E0A3E0FF740D2CF582E43460F583EFF075F00BED900570120285E0A3E0FF74862CF582E43460F583EFF075E1
:40120000F00BED900570120285E0FF74872CF582E43460F583EFF075F00BED900570120285E0A3E0FF74842CF582E43460F583EFF075F00BED900570120285E0FF74852C16
:40124000F582E43460F583EFF0900394E004F0900397E475F00712004502103B22E4900394F0906004E0900395F0906000E054806480600302135AA3E01460581460701465
:40128000700302132724FD6003021442906003E0B4211B12218E900551E07002A3E07003021442122DEC900394EFF0021442906003E064226003021442121EFC900551E00A
:4012C0007002A3E07003021442122DEC900394EFF0021442121448900551E07002A3E07003021442122DEC900394EFF0021442900395E0FFC394014003021442906002E05C
:401300006003021442900551F0A304F074342FF9E43406FA7B019005531202C1122DEC900394EFF0021442900395E0FFC394014003021442900551E4F0A304F074352FF9BF
:40134000E43406FA7B019005531202C1122DEC900394EFF0021442021442906000E054806003021442A3E024F6602814700302141A24026003021442121448900551E0707B
:4013800002A3E07003021442122F3B900394EFF0021442900395E0FFC394014003021442906002E06003021442A3E0FE74342FF582E43406F583EEF074332FF582E43406CE
:4013C000F583E0FE74342FF582E43406F583E0C39E5011900395E02433F582E43406F583E4F0802C900395E0FF2433F582E43406F583E0D39401401874342FF582E43406AE
:40140000F583E0FE74332FF582E43406F583EEF0123270900394EFF08028900395E0FFC39401501E906002E094015016E0FE74352FF582E43406F583EEF01232709003941D
:40144000EFF0900394E0FF22E4900551F0A3F0900565E014FF1230FF9003961202C1906003E090039DF0906004E090039CF0900397E475F00812004590039CE075F004A418
:40148000FF9003961202A1E92FF9EA35F0FA9003961202C1E92401F9E43AFA1202D69003961202C190039CE0FFC3940140030215A974502FF582E43405F583E075F004A4DB
:4014C000FF9003961202A1E92FF9EA35F0FA9003961202C19003961202A1E92401F9E43AFA1202D69003961202C190039DE0FFC3940150030215A9EFD3940340030215A93C
:40150000EF24FFFFE434FFFEEF7802C333CE33CED8F9FF9003961202A1E92FF9EA3EFA9003961202C1906002E090039DF09003961202A112001AFF90039DE0FEEFC39E40DF
:40154000689003961202A1E92401F9E43AFA1202D69003991202C1EE75F008A4FF9003991202A1E92FF9EA35F0FA9003991202C19003991202A1E92402F9E43AFA1202D636
:401580009005531202C19003991202A112005BFF900551E5F0F0A3EFF0E92405F9E43AFA1202D69005561202C12290FFC77401932401FFE4933400EF7B00FA90FFCB7401A5
:4015C000932BFFE4933AFEE48F498E48F547F546C201F54AAE02F5458E44F543F542AF49AE48AD47AC46AB45AA44A943A842C31201EA5032854582854483E493F54B6005CB
:40160000F46002D201E54B254AF54AAF45AE44AD43AC42E47B01FAF9F81200A58F458E448D438C4280B890FFC77401932401FFE4933400EFFEE47803CEC313CE13D8F9FF93
:40164000E48F458E44F543F5427FC07EFFFDFCAB49AA48A947A846C31201EA7007FF7E20FDFC800DAF49AE48AD47AC4678031201FB8F498E488D478C46AF49AE48AD47AC5F
:4016800046AB45AA44A943A842C31201EA5039E42545FFE43544FEE5433408FDE43542A907AA06AB051233ACEF254AF54AAF45AE44AD43AC42E47B01FAF9F81200A58F454B
:4016C0008E448D438C4280B1E54AF404F54A90FFC0E493B54A032001037F06227F002290037A1202C1900379EFF0D394005003021808E094094003021808E0FD24FFFFE441
:4017000034FFFEEFC4F8540FC868FFEEC454F04890037FEFF02488FFE43460FAA9077B01A31202C175F00BED900570120285E0FEA3E0FFC3E49FFF74029EFED390037EE0D5
:401740009F90037DE09E4020900379E075F00B900570120285E0FEA3E0FFC3E49F90037EF074029E90037DF090037DE0FCA3E0FDECFF900379E075F00B90056D120285E0F9
:401780004FFF90037FE0FE240CF582E43460F583EFF0ED740D2EF582E43460F583EDF090037A1202A1E94A4B6033E4FFFED390037EE09F90037DE09E402390037A1202A1CB
:4017C000E92FF9EA3EFA12001AFD9003801202A189828A83EDF00FEF70010E80D0900379E0FF75F00B90056B120285E4F075F00BEF90056F120285E0FF90037FE0240EF547
:4018000082E43460F583EFF022C0E0C0F0C083C082C085C084C086758600C093759300C0D075D000C000C001C002C003C004C005C006C00790061EE014604B146079147086
:40184000030218E8240360030219089006221202A190061DE0FF04F0E92FF9E43AFA12001A90061FF0E0FE5407A3F0EE701890061DF09006217402F0900620E4F090061E89
:401880007403F002190890061FE0FF30E7089006217403F080069006217401F0EF25E090061FF0A3E014F01233EEEF54FEFF1233E890061E7402F0900621E0702390061E73
:4018C0007403F0900620E07006A37402F08005900621E4F01233EEEF4401FF1233E88008900621E014F08020900621E07014900620E0700690061EF0800E90061E7401F094
:401900008006900621E014F0D007D006D005D004D003D002D001D000D0D0D093D086D084D085D082D083D0F0D0E0327B007A4679E81233ACEF4405FD7B007A4679E81233FE
:40194000B8E4F523E523C39409502CE52375F005A4243AF582E43436AF82F5218F22F5831202CA8F82852183740393FC740493FD123227052380CD7E357F9912300A7B018D
:401980007A5079031233ACEF4402FD7B017A5079031233B87B017A5079131233ACEF4402FD7B017A5079131233B89043A0E04440F09043C2E04410F07C357D7F7B007A51C8
:4019C00079F07F0A7E00122EDA7C357D897B007A5179127F087E00122EDA7C357D917B007A5179227F087E00122EDA9044F47401F0904322E04408F09046ECE0C39405506B
:401A000006904689743AF090480074F1F012224A90480074B1F01231B97B007A4379A0C00179B09000051202C1D0017F0E7E00122FA69043B0E054FDF0227D01E4FCECC3D4
:401A400094804003021B3974802CF582E43460F583740CF075F00BED90056F120285E0602D75F00BED90056E120285E05480600F740E2CF582E43460F583740CF0801C74AA
:401A80000E2CF582E43460F5837408F0800D740E2CF582E43460F5837480F075F00BED900572120285E0FF740C2CF582E43460F583EFF075F00BED900572120285E0A3E065
:401AC000FF740D2CF582E43460F583EFF075F00BED900570120285E0A3E0FF74862CF582E43460F583EFF075F00BED900570120285E0FF74872CF582E43460F583EFF0756F
:401B0000F00BED900570120285E0A3E0FF74842CF582E43460F583EFF075F00BED900570120285E0FF74852CF582E43460F583EFF00D74102CFC021A3E90600A74FFF0227C
:401B4000C0E0C0F0C083C082C085C084C086758600C093759300C0D075D000C000C001C002C003C004C005C006C007906028E0900389F0E0FF20E403021C18A37401F0EF63
:401B800030E71B540F64016004E4F0802E122936900566E030E72490038AE4F0801D900389E030E6051231F28011900389E030E505123095800590038AE4F090038AE06093
:401BC00057906028E0900389F0E05480704A900569E0FF900561E04F900389F0E0FF906029F0E0FEEF6E7030900566E090038AF0906028E05480900389F0E0700F90056631
:401C0000E0906028F0E0540F90038AF0900566E0FF90038AE0B507D0D007D006D005D004D003D002D001D000D0D0D093D086D084D085D082D083D0F0D0E0327593007800A4
:401C40007583467582E8E04401F0009046ECE0F99046FAE0FAB903225420B40012B8001AEA901FFFF07401901FFEF09046F6F0901FFEE06005901FFFE0FA90480074C0F037
:401C800075815312317D90000078007920E4F0A3D8FCD9FAEA900618F002001175081F7509FD12192B021CE3022DAAE493A3F8E493A34003F68001F208DFF48029E493A304
:401CC000F85407240CC8C333C4540F4420C8834004F456800146F6DFE4800B0102040810204080902C39E47E019360BCA3FF543F30E509541FFEE493A360010ECF54C025D9
:401D0000E060A840B8E493A3FAE493A3F8E493A3C8C582C8CAC583CAF0A3C8C582C8CAC583CADFE9DEE780BE8B428A4389448C458D46D3E5469440E5459400400675450024
:401D4000754640E54A75F00AA4FF900630E5F0F0A3EFF0E4F54CF54DA3E06041123406EF702D054DE54DAE4C7002054C14FFD3900631E09F900630E09E40047F0180027F41
:401D800000EF600BE47F01FEFDFC1228D180CD123406EF6008123400E4900632F07F0112339FEF6401602D054DE54DAE4C7002054C14FFD3900631E09F900630E09E400457
:401DC0007F0180027F00EF600BE47F01FEFDFC1228D180C97F0112339FEFB40126AB42AA43A94490037DE545F0A3E546F07F01122305AB47AA48A949EE8FF0120086E4F50E
:401E00004B800FAB47AA48A949E4F5F0120086754B10AF4B22E4900393F0906004E0547FFD24FFFFE434FFFEEFC4F8540FC868FFEEC454F048EDD394005003021EF6ED9417
:401E4000094003021EF675F00BED90056C120285E054FEF075F00BED90056D120285E4F0740C2FF582E43460F583E0547FFE740C2FF582E43460F583EEF075F00BED90056E
:401E80006B120285E054FDF075F00BED90056E120285E030E72C75F00BED90056B120285E0B4010F740E2FF582E43460F583740CF0803B740E2FF582E43460F583740DF07B
:401EC000802CAE0575F00BED90056B120285E0B4010F740E2FF582E43460F5837408F0800D740E2FF582E43460F5837409F0123270900393EFF0900393E0FF22900565E099
:401F000014FF1230FF9003961202C1906004E090039CF0900397E475F00812004590039CE075F004A4FF9003961202A1E92FF9EA35F0FA9003961202C19003961202A1E9B2
:401F40002401F9E43AFA1202D69003961202C190039CE02450F582E43405F583E075F004A4FF9003961202A1E92FF9EA35F0FA9003961202C19003961202A1E92401F9E409
:401F80003AFA1202D69003961202C1900397E475F00C1200459003961202A1E92401F9E43AFA1202D69003991202C19003991202A1E92401F9E43AFA12001AFE90039912DF
:401FC00002A112001AFDEEEDFF900551EEF0A3EFF0E92402F9E43AFA9005531202C122900379EFF0A3ECF0A3EDF0A31202C112313FEF60030220B1900379E0FF90037C12E1
:4020000002A190037FE0FDA3E0900386CDF0A3EDF0122866900381EFF0640760030220AC904722E0540270087F01FE12306880F0904722E054026009E0FF1313543FFF8018
:40204000027FFFEF7006900381F0800690038174FFF0900381E07054900379E0FFA3E0FCA3E0FD90062EE0FBA3E0900386F0122AF2900381EFF064077032904722E0540250
:4020800070087F01FE12306880F0904722E054026009E0FF1313543FFF80027FFFEF7006900381F0800690038174FFF01233C480069003817404F0900381E0FF221232C94E
:4020C00090037BEFF09043A5E04401F09043B5E04401F090609D7401F090600904F0906010E0547FF0E4FFFE123068904394E054F9F0906012E054DFF0904394E04401F0B7
:402100007F017E001230687F287E001230689051F8E0547FF0E054BFF0904394E04402F07F027E00123068904394E04404F0906084E4F0A3F090037BE0FF1232407C2B7DB4
:40214000E87F17122A9E7D077F1712320E7C307D677F15122A9E7D077F1512320E7C1B7D407F18122A9E7D077F1812320E7C2B7D46E4FF122A9E7D07E4FF12320E7C2B7DFD
:40218000977F01122A9E7D077F0112320E22900565E014FF1230FF9003961202C1906004E0900399F0900397E475F008120045900399E075F004A4FF9003961202A1E92FBA
:4021C000F9EA35F0FA9003961202C19003961202A1E92401F9E43AFA1202D69003961202C1900399E02450F582E43405F583E075F004A4FF9003961202A1E92FF9EA35F084
:40220000FA9003961202C19003961202A1E92401F9E43AFA1202D69003961202C1900397E475F0101200459003961202A1E92401F9E43AFA1202D612001AFF900551E4F01B
:40224000A3EFF09005531202C1227B007A4079807DBF7C5D1233679040827419F09043007406F07B007A4279127D197C331233679042107405F0E0FFE47FC87E32FDFC90C1
:402280000000120279900000120241D3EF9400EE94004029904210E054806021E47FE07E01FDFC122F0090000012024174FFFBFAF9F81200A590000012027980C89042002C
:4022C0007452F07B0C7A01790F1233AC9046A1EFF07B007A407904E4FDFC1233679040047407F0904006E4F09040087448F0904004E4F0904009F09040017402F09043A292
:40230000E04401F02290037A1202C1900379EFF0D3940050030223A8E0940940030223A8A31202A1E94A4B607F900379E0FD24FFFFE434FFFEEFC4F8540FC868FFEEC4546D
:40234000F048EF2488FFE43460FAA9077B0190037F1202C1AF05122C86D390037EE09F90037DE09E4005EEF0A3EFF0E4FFFED390037EE09F90037DE09E402390037F12029D
:40238000A189828A83E0FD90037A1202A1E92FF9EA3EFAED1200330FEF70010E80D0900379E0FF122D208007E490037DF0A3F090037DE0FEA3E0FF228C428D438A448B457D
:4023C000A9078543828542837401F0A3E9F08D828C83A3A3E545F0E5448D828C83A3A3A3F0AA42A9437B01E5452404FDE43544FC12245D8E468F47E5452404FDE43544FC39
:40240000E5432DF582E5423CF583EFF0E546FFE5452405FDE43544FCE5432DF582E5423CF583EFF0E5452406FFE43544FEE5432FF582E5423EF5837417F0AA42A9437B0195
:40244000C003E5452407FDE43544FC1B8B4D754E00754F44755096D003122610228B488A49894A8C4B8D4C74FFF54DF54EE54C454B7009E54EF4FFE54DF4FE22E4F54F7831
:402480004875F00112029112001AFD7C00E54FC394085039ED5401FFE54E5401FBE4EB6F6015E54DC313FEE54E13FFEE6484F54DEF6408F54E800BE54DC313F54DE54E1375
:4024C000F54E054FECC313FCED13FD80C0E54C154C7002154B14454B70A2634EFF634DFFAC4DAD4EECFDE54EF54DEDF54EAE4DFF2290055AE0FF900567E48FF0120045E4CB
:40250000900569F0D3900552E09400900551E094004038900569E094085030900553E475F0011202AA12001AFF900569E0FEE42EF582E43460F583EFF0900569E004F09002
:40254000055174FFF5F012004580B9900569E0D39400500790055AE0B40815900561E06480F0900566740FF09005627402F0800A9005667402F0900562F0900569E0900527
:402580005AF022E4900393F0906004E0547FFD24FFFFE434FFFEEFC4F8540FC868FFEEC454F048EDD394004061ED9409505C75F00BED90056C120285E04401F075F00BEDCB
:4025C00090056D120285E4F075F00BED90056B120285E04402F0AE0575F00BEE90056E120285E030E70F740E2FF582E43460F583748DF0800D740E2FF582E43460F583748B
:4026000089F0123270900393EFF0900393E0FF228C4B8D4C90037DE4F0A37440F07F021216DFE55075F00AA4FF900630E5F0F0A3EFF0E4F551F5527F0212339FEF702D0523
:4026400052E552AE517002055114FFD3900631E09F900630E09E40047F0180027F00EF600BE47F01FEFDFC1228D180CB7F0212339FEF70057553108011AB4DAA4EA94FE5CB
:402680004B854CF0120086E4F553AF5322E4FE7E019006357401F0A3DEFC7E019044C27480F0A37401F09044C0F004F0E4900562F0ED14600B0470109060097402F0800EF7
:4026C0009060097403F080069060097403F0900563EFF0E4900565F0900559F090055DF090055FF0900564F090055AF09060287403F09060087480F0E47F01FEFDFC122F8C
:40270000009060127404F0227B017A60790090038B1202C1906029E0540F24FE900569F0E0FF900567E48FF0120045D3900552E09400900551E094004039900569E0D39404
:4027400000403090038BE475F0011202AA89828A83E0FF900553E475F0011202AAEF120033900569E014F090055174FFF5F012004580B8900561E06480F0900566740BF0E5
:40278000229004C51202A11202218F498E488D478C46E4FFFEFDFC122F729003A21202A112001AFEC3EF9EFFF404FFB506219004C51202A1120221EC4D4E4F601212325876
:4027C000EF700C7B017A0379A5122D67EF60057F001232B41215AAEF70099046FAE054C0B440099046FAE4F0FF1204B5E4FF1204B5123392229003937401F0906004E090E8
:402800000394F0900565E014FF1230FFE92401F9E43AFA1202D6E92404F9E43AFA12001AFF900394E0FEC39F5006EEC394014007E4900393F0802974502EF582E43405F525
:4028400083E0FF745E2EF582E43405F583EFF0906002E0FF74502EF582E43405F583EFF0900393E0FF229003831202C19003887407F0904722E05402604B90472074B6F0DA
:4028800074D5F07402F0904722E05402702F904720EFF0E4FFFED3900387E09F900386E09E40289003831202A1E92FF9EA3EFA12001A904720F00FEF70010E80D990038887
:4028C0007409F080069003887404F0900388E0FF2290FFFC12031C120279850883850982120241D3EF9400EE9480402E900619120241122F00850883850982C083C08212C6
:402900000241E42FFFEE3480FEED34FFFDEC34FFFCD082D08312027980C090060F12024185088385098212024D1200C0122F0090000412031C22906028E090038BF0E0900D
:402940006028F0E090038BF0E0FF30E705900566F0227F02122E2E906000E0546024E0601224E060182440701E12092790038BEFF08019122CD390038BEFF0800F123306D2
:4029800090038BEFF08005E490038BF090038BE070069005667403F022900565E014FF1230FF90039E1202C190039E1202A1E92401F9E43AFA1202D6E92404F9E43AFA1254
:4029C000001AFF90039FE475F008120045EF75F004A4FF90039FE5F08FF012004590039E1202A1E92401F9E43AFA1202D6AE02AF01221232DE90000174FFF012313FEF70A4
:402A00003B7F01123038EF6407702C7B017A06792E7D02122A48EFB40215E4900001F0904722E0540270107F01FE12306880F0904722E0540260D41233C480069000017468
:402A400004F0900001E0FF229000021202C1900005EDF0E4A3F0900005E0FFA3E0C39F5037904722E054016003D38001C340097F017E0012306880E9904720E0FF90000236
:402A80001202A1900006E029F9E43AFAEF120033900006E004F080BE900006E0FF2290037DECF0A3EDF090037CEFF0541F25E0FFE433FEE42FFFEE3444FAA9077B01123375
:402AC0005A90037FEEF0A3EFF090037CE075F002A42400FFE5F03444FAA9077B01A3E0FEA3E0FFFDAC0612336990037FE0FEA3E0FF22900383ECF0A3EDF0AC077D07904706
:402B000022E05402603B90472074B6F074D8F07405F0904722E054027023904720ECF0900383E0904720F0900383E0A3E0904720F0EBF0900386E0904720F080067D0980D3
:402B4000027D04AF0522C0E0C083C082C085C084C086758600C093759300C0D075D000C00790600EE0FF900575E0540364016007900578E06480F09005767401F090600B00
:402B8000E054FEF0D007D0D0D093D086D084D085D082D083D0E032C0E0C083C082C085C084C086758600C093759300C0D075D000C00790601EE0FF900580E05403640160AF
:402BC00007900583E06480F09005817401F090600BE054FDF0D007D0D0D093D086D084D085D082D083D0E032C0E0C0F0C083C082C085C084C086758600C093759300C0D081
:402C000075D000C000C001C002C003C004C005C006C007122EA3D007D006D005D004D003D002D001D000D0D0D093D086D084D085D082D083D0F0D0E03241061D0041061EA2
:402C4000004303A2FF36674304C5FF3668440614016E360044060F00005DC0410613184406192EE000004106360043062B00000042063000004106320041063700410638EC
:402C8000004106250000E4FDFCEFD39400403FEF9409503AEF24FFFFE434FFFEEFC4F8540FC868FFEEC454F048AB07740C2BF582E43460F583E05407FE740D2BF582E43407
:402CC00060F583E0FBEEEB24FEFDEE34FFFCAE04AF0522E4900393F0FF906000E0540324FE600A047018906004E0FF8011906004E0547F75F00B900574120285E0FF9005BB
:402D00005BE0FCA3E02FF582E43CF583E49324FD700812125D900393EFF0900393E0FF22AD07EDD39400403EED94095039ED24FFFFE434FFFEEFC4F8540FC868FFEEC454DE
:402D4000F04875F00BED90056B120285E4F075F00BED90056F120285E0FE740E2FF582E43460F583EEF0229000001202C1E4900003F01232DE9000001202A1E94A4B700739
:402D800090000304F0801D12313FEF60089000037404F0800F9000001202A190062B1202C11233C4900003E0FF227BFF7A3679749006221202C11233F4EF30E01712333AA2
:402DC000EF600E7BFF7A3679799006221202C180031233927E187F091231201232F3D2AF9044F474FDF012278180FE22900551E07002A3E0700512319B803090056274028C
:402E0000F0E4900561F0122FDA906007E0FE906006E0FDEEEDFFD3900552E09F900551E09E4005EEF0A3EFF01224F17F01229005561202A1E94A4B60319005561202A1EFF2
:402E4000120033900567E0FEA3E0FF9005561202A1E92401F9E43AFAEE8FF01200867B007A0079009005561202C122904F00E05401F0904F02E054FCF0904F01E04401F0A3
:402E8000904F0BE054CFF0E04430F0E054F0F0E0440FF07FF01233767FF01231D6E4FF1233FA22E4FF7F019006357401F0A3DFFCE4900562F0900565F0900559F090055D2E
:402EC000F090055FF0900564F090055AF09060287403F09060087480F022758600EF4E601BEF60010E8C838D828B958A858984E493A30586F0A31586DFF5DEF3E4F5952246
:402F0000EC4D4E700D78FCEF24E950032840FD2200007BF178DA0000EF28FF78FFEE38FEED38FDEC38FC50E7EF2BFFEE38FEED38FDEC38FC40F2220502030490056274040B
:402F4000F09005617480F0122FDA906007E0FE906006E0FDEEEDFFD3900552E09F900551E09E4005EEF0A3EFF0900566740BF07F01228F458E448D438C42E4F54A78467403
:402F8000FF12025BE4FBFAF9F8C31201EA5014E5452549F582E5443548F583E493254AF54A80DAAF4A22758600EF4E6027EF60010E759300900005E0F595A3E0F585A3E04A
:402FC000F5848B938A838982E0A30586F0A31586DFF6DEF4E4F593F59522E4900567F0A3F09005561202A1E94A4B601D9005561202A1E41200339005561202A1E92401F9B9
:40300000E43AFAE4F5F012008622ACEAADA08E838F82E493F9601CA3E493F5EAA3E493F5A0A3E49360F1FAA3E493F8A3E493F2DAF6D9E48DA08CEA227E07904722E05402D3
:40304000601F90472074B6F074E1F0740EF0904722E054027007904720EFF080067E0980027E04AF06223232EEFA900613E0F88FF0A4FFAEF0E88AF0A42EFEE5F03400FDE0
:40308000EF24C9FF78FFEE38FEED38FDE438FC5003022F0022900562E024FC600C24FE600C2404701312315E22122708227F03122E2E9005667403F022900379EFF0A3ED09
:4030C000F0900638E070091220BD9006387401F0900379E0FFA3E0FD12268D2290055FE0600CE04480906008F0E490055FF0E4900562F07F01122E2E9005667403F02290E4
:4031000003A1EFF01233299003A1E075F004A429F9EA35F0FAE92405F9E43AFA1202D622900000EEF0A3EFF01233E1900000E0FEA3E0FF1233847F071233D01233DA2290E8
:4031400003827404F01232C9900637E0700704F0E4900382F0123240900382E0FF2290055AE0FF900567E48FF0120045E4900562F07F01122E2E9005667403F0229046FA29
:40318000E054C0B48014E4F090FFC393FE740193FF4E6006E4FCFD123349229005627402F09005617480F0900566740FF0E490055AF0900569F07F01227B0C7A0179CF1280
:4031C00033ACEF540790586EF0EFC4540FA3F09058767444F0229043A3E04401F07B027A4F7906EFFD7C001233699043A3E054FEF022900562E024FC600C24FE600C240456
:40320000700B12340C22123318221230DC22AC07ED540775F020A4FFEC541F2480F582E43444F583EFF022EC4D6011ED60010C8B938A838982E4F0A3DDFCDCFA75930022E4
:40324000EF54016004D2AF8002C2AFEF5402FF9044F4E054FD4FF0221229F2900000EFF070081229F2900000EFF0900000E0FF229005627406F0900566F09005617480F02D
:40328000E4900569F07F01229043A3E04401F09043B3E04401F0904F00E04401F022D2AF9044F474FDF07D02E4FF1230B99006327401F02290FFFF12031CEFF09046EA7436
:4032C00001F090000112031C229044F4E0F84402F0E85402FF10AF012274014FFF221232C99043A0E04408F09043B0E04408F012324022900636E07009122E6B900636742E
:4033000001F012328822E4FF906000E0548064807005A3E0FE800022E4900562F07F01122E2E9005667403F022900563E075F00490357C1202851202CA22904210E05480BD
:4033400060047F0180027F0022900618E0FA8E838F827400758101738B938A838982E0FFA3E0FE759300228B938A838982EDF0A3ECF0759300227B027A4F7904EFFD7C0017
:40338000123369227B027A447904AD07AC06123369229046FA7480F09046F67401F02275F00BEF90056B120285E0FF228B938A838982E0759300FF228B938A838982EDF0FD
:4033C000759300221232C9E4900637F012324022EFC43354E0904482F0229044C07404F0229044C87404F022906479EFF022906479E0FF22906469E0FF22904F03EFF0226C
:403400007F01122D2022900565E0FF221224F1221201000200000008B4041DB701300304800109022900010100C00209040000020300000409211101000122240007050147
:40344000034000010705820340000104030904280350006500610062006500720072007900200042006F006F0074006C006F0061006400650072000C034100450039005272
:403480000042002C0343007900700072006500730073002000530065006D00690063006F006E0064007500630074006F0072002203500053006F0043003300200042006FB5
:4034C000006F0074006C006F006100640065007200000A033000300030003100240005010900A1000900A1000900150025FF7508954091020900150025FF750895408102E8
:40350000C0C00000240005010900A1000900A1000900150025FF7508954091020900150025FF750895408102C0C0000000410104C801050C004101050F01050900FF352CEA
:4035400000FF35340000000001FF350401FF343401FF353C00000103004003000082030040030301FF342202FF355401FF355000FF356201FF341001FF356301FF35730040
:4035800000000000000000C00000240000000000000000600060000000140045017E02004F010A1B0052030C2010607C400064017901010802DB04DF010109045880680173
:4035C0008801D608011701EE0A0119029C80EE0A011B01B080014004320433803640CC700141039608A640A78001420512809608A640A780C410014303A640A780AE840126
:4036000045025D02D6010146019D0201470608080F4089029D02C20CE001014803AE40AF80EE50014C040F40AC08AF40C204014D02B340EA04015101003A004F00000C00D7
:403640005100001000513000400051C00010010000100001140008000140000A00014C000200015000002008000037006930091E030A010184E3E38100948142440000005A
:40368000000000000000000000000000000000000000000000000000000000000000000000000000000000000000000000000000000000000000000000000000000000000A
:4036C00000000000000000000000000000000000000000000000000000000000000000000000000000000000000000000000000000000000000000000000000000000000CA
:403700000000000000000000000000000000000000000000000000000000000000000000000000000000000000000000000000000000000000000000000000000000000089
:403740000000000000000000000000000000000000000000000000000000000000000000000000000000000000000000000000000000000000000000000000000000000049
:40FFC00000000000000000000000000000000000000000000101010000000000000000000000000000000000000000000000000000000000000000000000000000000000FE
:0200000480007A
:4000000000000000000000000000000000000000000000000000000000000000000000000000000000000000000000000000000000000000000000000000000000000000C0
:400040000000000000000000000000000000000000000000000000000000000000000000000000000000000000000000000000000000000000000000000000000000000080
:400080000000000000000000000000000000000000000000000000000000000000000000000000000000000000000000000000000000000000000000000000000000000040
:4000C0000000000000000000000000000000000000000000000000000000000000000000000000000000000000000000000000000000000000000000000000000000000000
:0200000490006A
:040000000800C0052F
:0200000490105A
:04000000BC90ACAF55
:0200000490303A
:02000000C80333
:0200000490501A
:0C00000000011E09306903011E21F86C8C
:0200000490402A
:4000000000000000000000000000000000000000000000000000000000000000000000000000000000000000000000000000000000000000000000000000000000000000C0
:00000001FF
